{
  "_format": "hh-sol-artifact-1",
  "contractName": "ProductAuth",
  "sourceName": "contracts/ProductAuth.sol",
  "abi": [
    {
      "anonymous": false,
      "inputs": [
        {
          "indexed": true,
          "internalType": "uint256",
          "name": "tokenId",
          "type": "uint256"
        },
        {
          "indexed": false,
          "internalType": "string",
          "name": "name",
          "type": "string"
        },
        {
          "indexed": true,
          "internalType": "address",
          "name": "owner",
          "type": "address"
        }
      ],
      "name": "ProductRegistered",
      "type": "event"
    },
    {
      "inputs": [],
      "name": "productCounter",
      "outputs": [
        {
          "internalType": "uint256",
          "name": "",
          "type": "uint256"
        }
      ],
      "stateMutability": "view",
      "type": "function"
    },
    {
      "inputs": [
        {
          "internalType": "uint256",
          "name": "",
          "type": "uint256"
        }
      ],
      "name": "products",
      "outputs": [
        {
          "internalType": "string",
          "name": "name",
          "type": "string"
        },
        {
          "internalType": "string",
          "name": "description",
          "type": "string"
        },
        {
          "internalType": "string",
          "name": "tokenURI",
          "type": "string"
        },
        {
          "internalType": "address",
          "name": "owner",
          "type": "address"
        }
      ],
      "stateMutability": "view",
      "type": "function"
    },
    {
      "inputs": [
        {
          "internalType": "string",
          "name": "name",
          "type": "string"
        },
        {
          "internalType": "string",
          "name": "description",
          "type": "string"
        },
        {
          "internalType": "string",
          "name": "tokenURI",
          "type": "string"
        }
      ],
      "name": "registerProduct",
      "outputs": [],
      "stateMutability": "nonpayable",
      "type": "function"
    },
    {
      "inputs": [
        {
          "internalType": "uint256",
          "name": "tokenId",
          "type": "uint256"
        }
      ],
      "name": "verifyProduct",
      "outputs": [
        {
          "components": [
            {
              "internalType": "string",
              "name": "name",
              "type": "string"
            },
            {
              "internalType": "string",
              "name": "description",
              "type": "string"
            },
            {
              "internalType": "string",
              "name": "tokenURI",
              "type": "string"
            },
            {
              "internalType": "address",
              "name": "owner",
              "type": "address"
            }
          ],
          "internalType": "struct ProductAuth.Product",
          "name": "",
          "type": "tuple"
        }
      ],
      "stateMutability": "view",
      "type": "function"
    }
  ],
  "bytecode": "0x608060405234801561001057600080fd5b50611007806100206000396000f3fe608060405234801561001057600080fd5b506004361061004c5760003560e01c80631f16653b146100515780633406b7181461006f578063524e84621461008b5780637acc0b20146100bb575b600080fd5b6100596100ee565b60405161006691906107d3565b60405180910390f35b6100896004803603810190610084919061085d565b6100f4565b005b6100a560048036038101906100a0919061093d565b610309565b6040516100b29190610aac565b60405180910390f35b6100d560048036038101906100d0919061093d565b610594565b6040516100e59493929190610b27565b60405180910390f35b60005481565b60008081548092919061010690610bb0565b9190505550604051806080016040528087878080601f016020809104026020016040519081016040528093929190818152602001838380828437600081840152601f19601f82011690508083019250505050505050815260200185858080601f016020809104026020016040519081016040528093929190818152602001838380828437600081840152601f19601f82011690508083019250505050505050815260200183838080601f016020809104026020016040519081016040528093929190818152602001838380828437600081840152601f19601f8201169050808301925050505050505081526020013373ffffffffffffffffffffffffffffffffffffffff16815250600160008054815260200190815260200160002060008201518160000190816102379190610e33565b50602082015181600101908161024d9190610e33565b5060408201518160020190816102639190610e33565b5060608201518160030160006101000a81548173ffffffffffffffffffffffffffffffffffffffff021916908373ffffffffffffffffffffffffffffffffffffffff1602179055509050503373ffffffffffffffffffffffffffffffffffffffff166000547fd810998a0248808a33b20218e71759cb2ec1a182b398350ad606d742587c012c88886040516102f9929190610f41565b60405180910390a3505050505050565b61031161077c565b6000821415801561032457506000548211155b610363576040517f08c379a000000000000000000000000000000000000000000000000000000000815260040161035a90610fb1565b60405180910390fd5b6001600083815260200190815260200160002060405180608001604052908160008201805461039190610c56565b80601f01602080910402602001604051908101604052809291908181526020018280546103bd90610c56565b801561040a5780601f106103df5761010080835404028352916020019161040a565b820191906000526020600020905b8154815290600101906020018083116103ed57829003601f168201915b5050505050815260200160018201805461042390610c56565b80601f016020809104026020016040519081016040528092919081815260200182805461044f90610c56565b801561049c5780601f106104715761010080835404028352916020019161049c565b820191906000526020600020905b81548152906001019060200180831161047f57829003601f168201915b505050505081526020016002820180546104b590610c56565b80601f01602080910402602001604051908101604052809291908181526020018280546104e190610c56565b801561052e5780601f106105035761010080835404028352916020019161052e565b820191906000526020600020905b81548152906001019060200180831161051157829003601f168201915b505050505081526020016003820160009054906101000a900473ffffffffffffffffffffffffffffffffffffffff1673ffffffffffffffffffffffffffffffffffffffff1673ffffffffffffffffffffffffffffffffffffffff16815250509050919050565b60016020528060005260406000206000915090508060000180546105b790610c56565b80601f01602080910402602001604051908101604052809291908181526020018280546105e390610c56565b80156106305780601f1061060557610100808354040283529160200191610630565b820191906000526020600020905b81548152906001019060200180831161061357829003601f168201915b50505050509080600101805461064590610c56565b80601f016020809104026020016040519081016040528092919081815260200182805461067190610c56565b80156106be5780601f10610693576101008083540402835291602001916106be565b820191906000526020600020905b8154815290600101906020018083116106a157829003601f168201915b5050505050908060020180546106d390610c56565b80601f01602080910402602001604051908101604052809291908181526020018280546106ff90610c56565b801561074c5780601f106107215761010080835404028352916020019161074c565b820191906000526020600020905b81548152906001019060200180831161072f57829003601f168201915b5050505050908060030160009054906101000a900473ffffffffffffffffffffffffffffffffffffffff16905084565b6040518060800160405280606081526020016060815260200160608152602001600073ffffffffffffffffffffffffffffffffffffffff1681525090565b6000819050919050565b6107cd816107ba565b82525050565b60006020820190506107e860008301846107c4565b92915050565b600080fd5b600080fd5b600080fd5b600080fd5b600080fd5b60008083601f84011261081d5761081c6107f8565b5b8235905067ffffffffffffffff81111561083a576108396107fd565b5b60208301915083600182028301111561085657610855610802565b5b9250929050565b6000806000806000806060878903121561087a576108796107ee565b5b600087013567ffffffffffffffff811115610898576108976107f3565b5b6108a489828a01610807565b9650965050602087013567ffffffffffffffff8111156108c7576108c66107f3565b5b6108d389828a01610807565b9450945050604087013567ffffffffffffffff8111156108f6576108f56107f3565b5b61090289828a01610807565b92509250509295509295509295565b61091a816107ba565b811461092557600080fd5b50565b60008135905061093781610911565b92915050565b600060208284031215610953576109526107ee565b5b600061096184828501610928565b91505092915050565b600081519050919050565b600082825260208201905092915050565b60005b838110156109a4578082015181840152602081019050610989565b60008484015250505050565b6000601f19601f8301169050919050565b60006109cc8261096a565b6109d68185610975565b93506109e6818560208601610986565b6109ef816109b0565b840191505092915050565b600073ffffffffffffffffffffffffffffffffffffffff82169050919050565b6000610a25826109fa565b9050919050565b610a3581610a1a565b82525050565b60006080830160008301518482036000860152610a5882826109c1565b91505060208301518482036020860152610a7282826109c1565b91505060408301518482036040860152610a8c82826109c1565b9150506060830151610aa16060860182610a2c565b508091505092915050565b60006020820190508181036000830152610ac68184610a3b565b905092915050565b600082825260208201905092915050565b6000610aea8261096a565b610af48185610ace565b9350610b04818560208601610986565b610b0d816109b0565b840191505092915050565b610b2181610a1a565b82525050565b60006080820190508181036000830152610b418187610adf565b90508181036020830152610b558186610adf565b90508181036040830152610b698185610adf565b9050610b786060830184610b18565b95945050505050565b7f4e487b7100000000000000000000000000000000000000000000000000000000600052601160045260246000fd5b6000610bbb826107ba565b91507fffffffffffffffffffffffffffffffffffffffffffffffffffffffffffffffff8203610bed57610bec610b81565b5b600182019050919050565b7f4e487b7100000000000000000000000000000000000000000000000000000000600052604160045260246000fd5b7f4e487b7100000000000000000000000000000000000000000000000000000000600052602260045260246000fd5b60006002820490506001821680610c6e57607f821691505b602082108103610c8157610c80610c27565b5b50919050565b60008190508160005260206000209050919050565b60006020601f8301049050919050565b600082821b905092915050565b600060088302610ce97fffffffffffffffffffffffffffffffffffffffffffffffffffffffffffffffff82610cac565b610cf38683610cac565b95508019841693508086168417925050509392505050565b6000819050919050565b6000610d30610d2b610d26846107ba565b610d0b565b6107ba565b9050919050565b6000819050919050565b610d4a83610d15565b610d5e610d5682610d37565b848454610cb9565b825550505050565b600090565b610d73610d66565b610d7e818484610d41565b505050565b5b81811015610da257610d97600082610d6b565b600181019050610d84565b5050565b601f821115610de757610db881610c87565b610dc184610c9c565b81016020851015610dd0578190505b610de4610ddc85610c9c565b830182610d83565b50505b505050565b600082821c905092915050565b6000610e0a60001984600802610dec565b1980831691505092915050565b6000610e238383610df9565b9150826002028217905092915050565b610e3c8261096a565b67ffffffffffffffff811115610e5557610e54610bf8565b5b610e5f8254610c56565b610e6a828285610da6565b600060209050601f831160018114610e9d5760008415610e8b578287015190505b610e958582610e17565b865550610efd565b601f198416610eab86610c87565b60005b82811015610ed357848901518255600182019150602085019450602081019050610eae565b86831015610ef05784890151610eec601f891682610df9565b8355505b6001600288020188555050505b505050505050565b82818337600083830152505050565b6000610f208385610ace565b9350610f2d838584610f05565b610f36836109b0565b840190509392505050565b60006020820190508181036000830152610f5c818486610f14565b90509392505050565b7f42616420746f6b656e4964000000000000000000000000000000000000000000600082015250565b6000610f9b600b83610ace565b9150610fa682610f65565b602082019050919050565b60006020820190508181036000830152610fca81610f8e565b905091905056fea2646970667358221220813a1d8e76095cebbff71afff84ca9afeff7b394edc82cac536187a51ff6737d64736f6c63430008110033",
  "linkReferences": {},
  "deployedLinkReferences": {}
}